{
    "_format": "hh-sol-artifact-1",
    "contractName": "Badge",
    "sourceName": "contracts/Badge.sol",
    "abi": [
        {
            "anonymous": false,
            "inputs": [
                {
                    "indexed": false,
                    "internalType": "uint16",
                    "name": "id",
                    "type": "uint16"
                },
                {
                    "indexed": false,
                    "internalType": "string",
                    "name": "issuerName",
                    "type": "string"
                },
                {
                    "indexed": false,
                    "internalType": "string",
                    "name": "recipientName",
                    "type": "string"
                }
            ],
            "name": "BadgeIssued",
            "type": "event"
        },
        {
            "inputs": [
                {
                    "internalType": "uint16",
                    "name": "",
                    "type": "uint16"
                }
            ],
            "name": "badgesById",
            "outputs": [
                {
                    "internalType": "uint16",
                    "name": "id",
                    "type": "uint16"
                },
                {
                    "internalType": "address",
                    "name": "issuer",
                    "type": "address"
                },
                {
                    "internalType": "string",
                    "name": "issuerName",
                    "type": "string"
                },
                {
                    "internalType": "address",
                    "name": "recipient",
                    "type": "address"
                },
                {
                    "internalType": "string",
                    "name": "recipientName",
                    "type": "string"
                }
            ],
            "stateMutability": "view",
            "type": "function"
        },
        {
            "inputs": [
                {
                    "internalType": "string",
                    "name": "_issuerName",
                    "type": "string"
                },
                {
                    "internalType": "address",
                    "name": "_recipient",
                    "type": "address"
                },
                {
                    "internalType": "string",
                    "name": "_recipientName",
                    "type": "string"
                }
            ],
            "name": "issue",
            "outputs": [],
            "stateMutability": "nonpayable",
            "type": "function"
        },
        {
            "inputs": [],
            "name": "owner",
            "outputs": [
                {
                    "internalType": "address",
                    "name": "",
                    "type": "address"
                }
            ],
            "stateMutability": "view",
            "type": "function"
        }
    ],
    "bytecode": "0x6080604052336000806101000a81548173ffffffffffffffffffffffffffffffffffffffff021916908373ffffffffffffffffffffffffffffffffffffffff16021790555060008060146101000a81548161ffff021916908361ffff16021790555034801561006d57600080fd5b50610ca88061007d6000396000f3fe608060405234801561001057600080fd5b50600436106100405760003560e01c80629a0443146100455780631e7ebea8146100615780638da5cb5b14610095575b600080fd5b61005f600480360381019061005a91906107ad565b6100b3565b005b61007b6004803603810190610076919061082c565b6103fe565b60405161008c959493929190610969565b60405180910390f35b61009d610592565b6040516100aa919061092c565b60405180910390f35b6040518060a00160405280600060149054906101000a900461ffff1661ffff1681526020013373ffffffffffffffffffffffffffffffffffffffff1681526020018481526020018373ffffffffffffffffffffffffffffffffffffffff16815260200182815250600160008060149054906101000a900461ffff1661ffff1661ffff16815260200190815260200160002060008201518160000160006101000a81548161ffff021916908361ffff16021790555060208201518160000160026101000a81548173ffffffffffffffffffffffffffffffffffffffff021916908373ffffffffffffffffffffffffffffffffffffffff16021790555060408201518160010190805190602001906101ca929190610678565b5060608201518160020160006101000a81548173ffffffffffffffffffffffffffffffffffffffff021916908373ffffffffffffffffffffffffffffffffffffffff160217905550608082015181600301908051906020019061022e929190610678565b509050506102f0600160008060149054906101000a900461ffff1661ffff1661ffff168152602001908152602001600020600301805461026d90610b18565b80601f016020809104026020016040519081016040528092919081815260200182805461029990610b18565b80156102e65780601f106102bb576101008083540402835291602001916102e6565b820191906000526020600020905b8154815290600101906020018083116102c957829003601f168201915b50505050506105b6565b7fac43d1426a4ee46693f182c0c494dbf397ff172171eec84caf54a2673d36d385600160008060149054906101000a900461ffff1661ffff1661ffff16815260200190815260200160002060000160009054906101000a900461ffff16600160008060149054906101000a900461ffff1661ffff1661ffff168152602001908152602001600020600101600160008060149054906101000a900461ffff1661ffff1661ffff1681526020019081526020016000206003016040516103b6939291906109ca565b60405180910390a16000601481819054906101000a900461ffff16809291906103de90610b7b565b91906101000a81548161ffff021916908361ffff16021790555050505050565b60016020528060005260406000206000915090508060000160009054906101000a900461ffff16908060000160029054906101000a900473ffffffffffffffffffffffffffffffffffffffff169080600101805461045b90610b18565b80601f016020809104026020016040519081016040528092919081815260200182805461048790610b18565b80156104d45780601f106104a9576101008083540402835291602001916104d4565b820191906000526020600020905b8154815290600101906020018083116104b757829003601f168201915b5050505050908060020160009054906101000a900473ffffffffffffffffffffffffffffffffffffffff169080600301805461050f90610b18565b80601f016020809104026020016040519081016040528092919081815260200182805461053b90610b18565b80156105885780601f1061055d57610100808354040283529160200191610588565b820191906000526020600020905b81548152906001019060200180831161056b57829003601f168201915b5050505050905085565b60008054906101000a900473ffffffffffffffffffffffffffffffffffffffff1681565b61064c816040516024016105ca9190610947565b6040516020818303038152906040527f41304fac000000000000000000000000000000000000000000000000000000007bffffffffffffffffffffffffffffffffffffffffffffffffffffffff19166020820180517bffffffffffffffffffffffffffffffffffffffffffffffffffffffff838183161783525050505061064f565b50565b60008151905060006a636f6e736f6c652e6c6f679050602083016000808483855afa5050505050565b82805461068490610b18565b90600052602060002090601f0160209004810192826106a657600085556106ed565b82601f106106bf57805160ff19168380011785556106ed565b828001600101855582156106ed579182015b828111156106ec5782518255916020019190600101906106d1565b5b5090506106fa91906106fe565b5090565b5b808211156107175760008160009055506001016106ff565b5090565b600061072e61072984610a34565b610a0f565b90508281526020810184848401111561074657600080fd5b610751848285610ad6565b509392505050565b60008135905061076881610c44565b92915050565b600082601f83011261077f57600080fd5b813561078f84826020860161071b565b91505092915050565b6000813590506107a781610c5b565b92915050565b6000806000606084860312156107c257600080fd5b600084013567ffffffffffffffff8111156107dc57600080fd5b6107e88682870161076e565b93505060206107f986828701610759565b925050604084013567ffffffffffffffff81111561081657600080fd5b6108228682870161076e565b9150509250925092565b60006020828403121561083e57600080fd5b600061084c84828501610798565b91505092915050565b61085e81610a96565b82525050565b600061086f82610a7a565b6108798185610a85565b9350610889818560208601610ae5565b61089281610c33565b840191505092915050565b600081546108aa81610b18565b6108b48186610a85565b945060018216600081146108cf57600181146108e157610914565b60ff1983168652602086019350610914565b6108ea85610a65565b60005b8381101561090c578154818901526001820191506020810190506108ed565b808801955050505b50505092915050565b61092681610aa8565b82525050565b60006020820190506109416000830184610855565b92915050565b600060208201905081810360008301526109618184610864565b905092915050565b600060a08201905061097e600083018861091d565b61098b6020830187610855565b818103604083015261099d8186610864565b90506109ac6060830185610855565b81810360808301526109be8184610864565b90509695505050505050565b60006060820190506109df600083018661091d565b81810360208301526109f1818561089d565b90508181036040830152610a05818461089d565b9050949350505050565b6000610a19610a2a565b9050610a258282610b4a565b919050565b6000604051905090565b600067ffffffffffffffff821115610a4f57610a4e610c04565b5b610a5882610c33565b9050602081019050919050565b60008190508160005260206000209050919050565b600081519050919050565b600082825260208201905092915050565b6000610aa182610ab6565b9050919050565b600061ffff82169050919050565b600073ffffffffffffffffffffffffffffffffffffffff82169050919050565b82818337600083830152505050565b60005b83811015610b03578082015181840152602081019050610ae8565b83811115610b12576000848401525b50505050565b60006002820490506001821680610b3057607f821691505b60208210811415610b4457610b43610bd5565b5b50919050565b610b5382610c33565b810181811067ffffffffffffffff82111715610b7257610b71610c04565b5b80604052505050565b6000610b8682610aa8565b915061ffff821415610b9b57610b9a610ba6565b5b600182019050919050565b7f4e487b7100000000000000000000000000000000000000000000000000000000600052601160045260246000fd5b7f4e487b7100000000000000000000000000000000000000000000000000000000600052602260045260246000fd5b7f4e487b7100000000000000000000000000000000000000000000000000000000600052604160045260246000fd5b6000601f19601f8301169050919050565b610c4d81610a96565b8114610c5857600080fd5b50565b610c6481610aa8565b8114610c6f57600080fd5b5056fea26469706673582212202cea2b64d4666bc931e1965f763ef0073318837305c0060a2c61a9bb54ad84fb64736f6c63430008040033",
    "linkReferences": {},
    "deployedLinkReferences": {}
}