{
  "address": "0xF0ea18BCd45128eF244F97579921827a4E881E12",
  "abi": [
    {
      "anonymous": false,
      "inputs": [
        {
          "indexed": false,
          "internalType": "uint16",
          "name": "id",
          "type": "uint16"
        },
        {
          "indexed": false,
          "internalType": "string",
          "name": "issuerName",
          "type": "string"
        },
        {
          "indexed": false,
          "internalType": "string",
          "name": "recipientName",
          "type": "string"
        }
      ],
      "name": "BadgeIssued",
      "type": "event"
    },
    {
      "inputs": [
        {
          "internalType": "uint16",
          "name": "",
          "type": "uint16"
        }
      ],
      "name": "badgesById",
      "outputs": [
        {
          "internalType": "uint16",
          "name": "id",
          "type": "uint16"
        },
        {
          "internalType": "address",
          "name": "issuer",
          "type": "address"
        },
        {
          "internalType": "string",
          "name": "issuerName",
          "type": "string"
        },
        {
          "internalType": "address",
          "name": "recipient",
          "type": "address"
        },
        {
          "internalType": "string",
          "name": "recipientName",
          "type": "string"
        }
      ],
      "stateMutability": "view",
      "type": "function"
    },
    {
      "inputs": [
        {
          "internalType": "string",
          "name": "_issuerName",
          "type": "string"
        },
        {
          "internalType": "address",
          "name": "_recipient",
          "type": "address"
        },
        {
          "internalType": "string",
          "name": "_recipientName",
          "type": "string"
        }
      ],
      "name": "issue",
      "outputs": [],
      "stateMutability": "nonpayable",
      "type": "function"
    },
    {
      "inputs": [],
      "name": "owner",
      "outputs": [
        {
          "internalType": "address",
          "name": "",
          "type": "address"
        }
      ],
      "stateMutability": "view",
      "type": "function"
    }
  ],
  "transactionHash": "0xaad422dbef430ce2352dd23b66c1003db507e6fd1128e466c8269a9129f12c06",
  "args": [],
  "solcInputHash": "b18e21b2d36553e2333602eedd1e1988",
  "bytecode": "0x6080604052336000806101000a81548173ffffffffffffffffffffffffffffffffffffffff021916908373ffffffffffffffffffffffffffffffffffffffff16021790555060008060146101000a81548161ffff021916908361ffff16021790555034801561006d57600080fd5b50610b068061007d6000396000f3fe608060405234801561001057600080fd5b50600436106100405760003560e01c80629a0443146100455780631e7ebea8146100615780638da5cb5b14610095575b600080fd5b61005f600480360381019061005a919061062d565b6100b3565b005b61007b600480360381019061007691906106ac565b610340565b60405161008c9594939291906107c7565b60405180910390f35b61009d6104d4565b6040516100aa91906107ac565b60405180910390f35b6040518060a00160405280600060149054906101000a900461ffff1661ffff1681526020013373ffffffffffffffffffffffffffffffffffffffff1681526020018481526020018373ffffffffffffffffffffffffffffffffffffffff16815260200182815250600160008060149054906101000a900461ffff1661ffff1661ffff16815260200190815260200160002060008201518160000160006101000a81548161ffff021916908361ffff16021790555060208201518160000160026101000a81548173ffffffffffffffffffffffffffffffffffffffff021916908373ffffffffffffffffffffffffffffffffffffffff16021790555060408201518160010190805190602001906101ca9291906104f8565b5060608201518160020160006101000a81548173ffffffffffffffffffffffffffffffffffffffff021916908373ffffffffffffffffffffffffffffffffffffffff160217905550608082015181600301908051906020019061022e9291906104f8565b509050507fac43d1426a4ee46693f182c0c494dbf397ff172171eec84caf54a2673d36d385600160008060149054906101000a900461ffff1661ffff1661ffff16815260200190815260200160002060000160009054906101000a900461ffff16600160008060149054906101000a900461ffff1661ffff1661ffff168152602001908152602001600020600101600160008060149054906101000a900461ffff1661ffff1661ffff1681526020019081526020016000206003016040516102f893929190610828565b60405180910390a16000601481819054906101000a900461ffff1680929190610320906109d9565b91906101000a81548161ffff021916908361ffff16021790555050505050565b60016020528060005260406000206000915090508060000160009054906101000a900461ffff16908060000160029054906101000a900473ffffffffffffffffffffffffffffffffffffffff169080600101805461039d90610976565b80601f01602080910402602001604051908101604052809291908181526020018280546103c990610976565b80156104165780601f106103eb57610100808354040283529160200191610416565b820191906000526020600020905b8154815290600101906020018083116103f957829003601f168201915b5050505050908060020160009054906101000a900473ffffffffffffffffffffffffffffffffffffffff169080600301805461045190610976565b80601f016020809104026020016040519081016040528092919081815260200182805461047d90610976565b80156104ca5780601f1061049f576101008083540402835291602001916104ca565b820191906000526020600020905b8154815290600101906020018083116104ad57829003601f168201915b5050505050905085565b60008054906101000a900473ffffffffffffffffffffffffffffffffffffffff1681565b82805461050490610976565b90600052602060002090601f016020900481019282610526576000855561056d565b82601f1061053f57805160ff191683800117855561056d565b8280016001018555821561056d579182015b8281111561056c578251825591602001919060010190610551565b5b50905061057a919061057e565b5090565b5b8082111561059757600081600090555060010161057f565b5090565b60006105ae6105a984610892565b61086d565b9050828152602081018484840111156105c657600080fd5b6105d1848285610934565b509392505050565b6000813590506105e881610aa2565b92915050565b600082601f8301126105ff57600080fd5b813561060f84826020860161059b565b91505092915050565b60008135905061062781610ab9565b92915050565b60008060006060848603121561064257600080fd5b600084013567ffffffffffffffff81111561065c57600080fd5b610668868287016105ee565b9350506020610679868287016105d9565b925050604084013567ffffffffffffffff81111561069657600080fd5b6106a2868287016105ee565b9150509250925092565b6000602082840312156106be57600080fd5b60006106cc84828501610618565b91505092915050565b6106de816108f4565b82525050565b60006106ef826108d8565b6106f981856108e3565b9350610709818560208601610943565b61071281610a91565b840191505092915050565b6000815461072a81610976565b61073481866108e3565b9450600182166000811461074f576001811461076157610794565b60ff1983168652602086019350610794565b61076a856108c3565b60005b8381101561078c5781548189015260018201915060208101905061076d565b808801955050505b50505092915050565b6107a681610906565b82525050565b60006020820190506107c160008301846106d5565b92915050565b600060a0820190506107dc600083018861079d565b6107e960208301876106d5565b81810360408301526107fb81866106e4565b905061080a60608301856106d5565b818103608083015261081c81846106e4565b90509695505050505050565b600060608201905061083d600083018661079d565b818103602083015261084f818561071d565b90508181036040830152610863818461071d565b9050949350505050565b6000610877610888565b905061088382826109a8565b919050565b6000604051905090565b600067ffffffffffffffff8211156108ad576108ac610a62565b5b6108b682610a91565b9050602081019050919050565b60008190508160005260206000209050919050565b600081519050919050565b600082825260208201905092915050565b60006108ff82610914565b9050919050565b600061ffff82169050919050565b600073ffffffffffffffffffffffffffffffffffffffff82169050919050565b82818337600083830152505050565b60005b83811015610961578082015181840152602081019050610946565b83811115610970576000848401525b50505050565b6000600282049050600182168061098e57607f821691505b602082108114156109a2576109a1610a33565b5b50919050565b6109b182610a91565b810181811067ffffffffffffffff821117156109d0576109cf610a62565b5b80604052505050565b60006109e482610906565b915061ffff8214156109f9576109f8610a04565b5b600182019050919050565b7f4e487b7100000000000000000000000000000000000000000000000000000000600052601160045260246000fd5b7f4e487b7100000000000000000000000000000000000000000000000000000000600052602260045260246000fd5b7f4e487b7100000000000000000000000000000000000000000000000000000000600052604160045260246000fd5b6000601f19601f8301169050919050565b610aab816108f4565b8114610ab657600080fd5b50565b610ac281610906565b8114610acd57600080fd5b5056fea2646970667358221220a924e1a9ec93fe40f246313ef00148edecf9d5c3d508164085a8f791ec710d3e64736f6c63430008040033",
  "devdoc": {
    "kind": "dev",
    "methods": {},
    "version": 1
  },
  "userdoc": {
    "kind": "user",
    "methods": {},
    "version": 1
  },
  "storageLayout": {
    "storage": [
      {
        "astId": 6,
        "contract": "contracts/Badge.sol:Badge",
        "label": "owner",
        "offset": 0,
        "slot": "0",
        "type": "t_address"
      },
      {
        "astId": 9,
        "contract": "contracts/Badge.sol:Badge",
        "label": "currentId",
        "offset": 20,
        "slot": "0",
        "type": "t_uint16"
      },
      {
        "astId": 25,
        "contract": "contracts/Badge.sol:Badge",
        "label": "badgesById",
        "offset": 0,
        "slot": "1",
        "type": "t_mapping(t_uint16,t_struct(BadgeInfo)20_storage)"
      }
    ],
    "types": {
      "t_address": {
        "encoding": "inplace",
        "label": "address",
        "numberOfBytes": "20"
      },
      "t_mapping(t_uint16,t_struct(BadgeInfo)20_storage)": {
        "encoding": "mapping",
        "key": "t_uint16",
        "label": "mapping(uint16 => struct Badge.BadgeInfo)",
        "numberOfBytes": "32",
        "value": "t_struct(BadgeInfo)20_storage"
      },
      "t_string_storage": {
        "encoding": "bytes",
        "label": "string",
        "numberOfBytes": "32"
      },
      "t_struct(BadgeInfo)20_storage": {
        "encoding": "inplace",
        "label": "struct Badge.BadgeInfo",
        "members": [
          {
            "astId": 11,
            "contract": "contracts/Badge.sol:Badge",
            "label": "id",
            "offset": 0,
            "slot": "0",
            "type": "t_uint16"
          },
          {
            "astId": 13,
            "contract": "contracts/Badge.sol:Badge",
            "label": "issuer",
            "offset": 2,
            "slot": "0",
            "type": "t_address"
          },
          {
            "astId": 15,
            "contract": "contracts/Badge.sol:Badge",
            "label": "issuerName",
            "offset": 0,
            "slot": "1",
            "type": "t_string_storage"
          },
          {
            "astId": 17,
            "contract": "contracts/Badge.sol:Badge",
            "label": "recipient",
            "offset": 0,
            "slot": "2",
            "type": "t_address"
          },
          {
            "astId": 19,
            "contract": "contracts/Badge.sol:Badge",
            "label": "recipientName",
            "offset": 0,
            "slot": "3",
            "type": "t_string_storage"
          }
        ],
        "numberOfBytes": "128"
      },
      "t_uint16": {
        "encoding": "inplace",
        "label": "uint16",
        "numberOfBytes": "2"
      }
    }
  }
}