{
  "address": "0xf772617a46D7a21bEA2a2B9D59A6d624A2013f40",
  "abi": [
    {
      "anonymous": false,
      "inputs": [
        {
          "indexed": false,
          "internalType": "uint256",
          "name": "id",
          "type": "uint256"
        },
        {
          "indexed": false,
          "internalType": "string",
          "name": "issuerName",
          "type": "string"
        },
        {
          "indexed": false,
          "internalType": "string",
          "name": "recipientName",
          "type": "string"
        }
      ],
      "name": "BadgeIssued",
      "type": "event"
    },
    {
      "inputs": [
        {
          "internalType": "uint256",
          "name": "",
          "type": "uint256"
        }
      ],
      "name": "badgesById",
      "outputs": [
        {
          "internalType": "uint256",
          "name": "id",
          "type": "uint256"
        },
        {
          "internalType": "address",
          "name": "issuer",
          "type": "address"
        },
        {
          "internalType": "string",
          "name": "issuerName",
          "type": "string"
        },
        {
          "internalType": "address",
          "name": "recipient",
          "type": "address"
        },
        {
          "internalType": "string",
          "name": "recipientName",
          "type": "string"
        }
      ],
      "stateMutability": "view",
      "type": "function"
    },
    {
      "inputs": [
        {
          "internalType": "string",
          "name": "_issuerName",
          "type": "string"
        },
        {
          "internalType": "address",
          "name": "_recipient",
          "type": "address"
        },
        {
          "internalType": "string",
          "name": "_recipientName",
          "type": "string"
        }
      ],
      "name": "issue",
      "outputs": [],
      "stateMutability": "nonpayable",
      "type": "function"
    },
    {
      "inputs": [],
      "name": "owner",
      "outputs": [
        {
          "internalType": "address",
          "name": "",
          "type": "address"
        }
      ],
      "stateMutability": "view",
      "type": "function"
    }
  ],
  "transactionHash": "0x4f5843b6cf937ae6d885c7d141c7e72c530bf264726cfb17bbe085a9fe254893",
  "args": [],
  "solcInputHash": "c5eaca0d7461be736940e5f70a0705b0",
  "bytecode": "0x6080604052336000806101000a81548173ffffffffffffffffffffffffffffffffffffffff021916908373ffffffffffffffffffffffffffffffffffffffff160217905550600060015534801561005557600080fd5b50610a62806100656000396000f3fe608060405234801561001057600080fd5b50600436106100405760003560e01c80629a0443146100455780638da5cb5b14610061578063eb4512231461007f575b600080fd5b61005f600480360381019061005a919061056f565b6100b3565b005b610069610290565b60405161007691906106ee565b60405180910390f35b610099600480360381019061009491906105ee565b6102b4565b6040516100aa959493929190610709565b60405180910390f35b6040518060a0016040528060015481526020013373ffffffffffffffffffffffffffffffffffffffff1681526020018481526020018373ffffffffffffffffffffffffffffffffffffffff168152602001828152506002600060015481526020019081526020016000206000820151816000015560208201518160010160006101000a81548173ffffffffffffffffffffffffffffffffffffffff021916908373ffffffffffffffffffffffffffffffffffffffff160217905550604082015181600201908051906020019061018a92919061043a565b5060608201518160030160006101000a81548173ffffffffffffffffffffffffffffffffffffffff021916908373ffffffffffffffffffffffffffffffffffffffff16021790555060808201518160040190805190602001906101ee92919061043a565b509050507fc5a863b686be6cfb2f28e72be462e91db1d42ad72b188299d3f47da16545ba416002600060015481526020019081526020016000206000015460026000600154815260200190815260200160002060020160026000600154815260200190815260200160002060040160405161026b9392919061076a565b60405180910390a16001600081548092919061028690610917565b9190505550505050565b60008054906101000a900473ffffffffffffffffffffffffffffffffffffffff1681565b60026020528060005260406000206000915090508060000154908060010160009054906101000a900473ffffffffffffffffffffffffffffffffffffffff1690806002018054610303906108b4565b80601f016020809104026020016040519081016040528092919081815260200182805461032f906108b4565b801561037c5780601f106103515761010080835404028352916020019161037c565b820191906000526020600020905b81548152906001019060200180831161035f57829003601f168201915b5050505050908060030160009054906101000a900473ffffffffffffffffffffffffffffffffffffffff16908060040180546103b7906108b4565b80601f01602080910402602001604051908101604052809291908181526020018280546103e3906108b4565b80156104305780601f1061040557610100808354040283529160200191610430565b820191906000526020600020905b81548152906001019060200180831161041357829003601f168201915b5050505050905085565b828054610446906108b4565b90600052602060002090601f01602090048101928261046857600085556104af565b82601f1061048157805160ff19168380011785556104af565b828001600101855582156104af579182015b828111156104ae578251825591602001919060010190610493565b5b5090506104bc91906104c0565b5090565b5b808211156104d95760008160009055506001016104c1565b5090565b60006104f06104eb846107d4565b6107af565b90508281526020810184848401111561050857600080fd5b610513848285610872565b509392505050565b60008135905061052a816109fe565b92915050565b600082601f83011261054157600080fd5b81356105518482602086016104dd565b91505092915050565b60008135905061056981610a15565b92915050565b60008060006060848603121561058457600080fd5b600084013567ffffffffffffffff81111561059e57600080fd5b6105aa86828701610530565b93505060206105bb8682870161051b565b925050604084013567ffffffffffffffff8111156105d857600080fd5b6105e486828701610530565b9150509250925092565b60006020828403121561060057600080fd5b600061060e8482850161055a565b91505092915050565b61062081610836565b82525050565b60006106318261081a565b61063b8185610825565b935061064b818560208601610881565b610654816109ed565b840191505092915050565b6000815461066c816108b4565b6106768186610825565b9450600182166000811461069157600181146106a3576106d6565b60ff19831686526020860193506106d6565b6106ac85610805565b60005b838110156106ce578154818901526001820191506020810190506106af565b808801955050505b50505092915050565b6106e881610868565b82525050565b60006020820190506107036000830184610617565b92915050565b600060a08201905061071e60008301886106df565b61072b6020830187610617565b818103604083015261073d8186610626565b905061074c6060830185610617565b818103608083015261075e8184610626565b90509695505050505050565b600060608201905061077f60008301866106df565b8181036020830152610791818561065f565b905081810360408301526107a5818461065f565b9050949350505050565b60006107b96107ca565b90506107c582826108e6565b919050565b6000604051905090565b600067ffffffffffffffff8211156107ef576107ee6109be565b5b6107f8826109ed565b9050602081019050919050565b60008190508160005260206000209050919050565b600081519050919050565b600082825260208201905092915050565b600061084182610848565b9050919050565b600073ffffffffffffffffffffffffffffffffffffffff82169050919050565b6000819050919050565b82818337600083830152505050565b60005b8381101561089f578082015181840152602081019050610884565b838111156108ae576000848401525b50505050565b600060028204905060018216806108cc57607f821691505b602082108114156108e0576108df61098f565b5b50919050565b6108ef826109ed565b810181811067ffffffffffffffff8211171561090e5761090d6109be565b5b80604052505050565b600061092282610868565b91507fffffffffffffffffffffffffffffffffffffffffffffffffffffffffffffffff82141561095557610954610960565b5b600182019050919050565b7f4e487b7100000000000000000000000000000000000000000000000000000000600052601160045260246000fd5b7f4e487b7100000000000000000000000000000000000000000000000000000000600052602260045260246000fd5b7f4e487b7100000000000000000000000000000000000000000000000000000000600052604160045260246000fd5b6000601f19601f8301169050919050565b610a0781610836565b8114610a1257600080fd5b50565b610a1e81610868565b8114610a2957600080fd5b5056fea26469706673582212202715b75406f20451a191af29eeac3fd63f4e6ddd148c81ecd888f3ecf80b66f164736f6c63430008040033",
  "devdoc": {
    "kind": "dev",
    "methods": {},
    "version": 1
  },
  "userdoc": {
    "kind": "user",
    "methods": {},
    "version": 1
  },
  "storageLayout": {
    "storage": [
      {
        "astId": 5,
        "contract": "contracts/Badge.sol:Badge",
        "label": "owner",
        "offset": 0,
        "slot": "0",
        "type": "t_address"
      },
      {
        "astId": 8,
        "contract": "contracts/Badge.sol:Badge",
        "label": "currentId",
        "offset": 0,
        "slot": "1",
        "type": "t_uint256"
      },
      {
        "astId": 24,
        "contract": "contracts/Badge.sol:Badge",
        "label": "badgesById",
        "offset": 0,
        "slot": "2",
        "type": "t_mapping(t_uint256,t_struct(BadgeInfo)19_storage)"
      }
    ],
    "types": {
      "t_address": {
        "encoding": "inplace",
        "label": "address",
        "numberOfBytes": "20"
      },
      "t_mapping(t_uint256,t_struct(BadgeInfo)19_storage)": {
        "encoding": "mapping",
        "key": "t_uint256",
        "label": "mapping(uint256 => struct Badge.BadgeInfo)",
        "numberOfBytes": "32",
        "value": "t_struct(BadgeInfo)19_storage"
      },
      "t_string_storage": {
        "encoding": "bytes",
        "label": "string",
        "numberOfBytes": "32"
      },
      "t_struct(BadgeInfo)19_storage": {
        "encoding": "inplace",
        "label": "struct Badge.BadgeInfo",
        "members": [
          {
            "astId": 10,
            "contract": "contracts/Badge.sol:Badge",
            "label": "id",
            "offset": 0,
            "slot": "0",
            "type": "t_uint256"
          },
          {
            "astId": 12,
            "contract": "contracts/Badge.sol:Badge",
            "label": "issuer",
            "offset": 0,
            "slot": "1",
            "type": "t_address"
          },
          {
            "astId": 14,
            "contract": "contracts/Badge.sol:Badge",
            "label": "issuerName",
            "offset": 0,
            "slot": "2",
            "type": "t_string_storage"
          },
          {
            "astId": 16,
            "contract": "contracts/Badge.sol:Badge",
            "label": "recipient",
            "offset": 0,
            "slot": "3",
            "type": "t_address"
          },
          {
            "astId": 18,
            "contract": "contracts/Badge.sol:Badge",
            "label": "recipientName",
            "offset": 0,
            "slot": "4",
            "type": "t_string_storage"
          }
        ],
        "numberOfBytes": "160"
      },
      "t_uint256": {
        "encoding": "inplace",
        "label": "uint256",
        "numberOfBytes": "32"
      }
    }
  }
}