{
  "_format": "hh-sol-artifact-1",
  "contractName": "Badge",
  "sourceName": "contracts/Badge.sol",
  "abi": [
    {
      "anonymous": false,
      "inputs": [
        {
          "indexed": false,
          "internalType": "uint16",
          "name": "id",
          "type": "uint16"
        },
        {
          "indexed": false,
          "internalType": "string",
          "name": "issuerName",
          "type": "string"
        },
        {
          "indexed": false,
          "internalType": "string",
          "name": "recipientName",
          "type": "string"
        }
      ],
      "name": "BadgeIssued",
      "type": "event"
    },
    {
      "inputs": [
        {
          "internalType": "uint16",
          "name": "",
          "type": "uint16"
        }
      ],
      "name": "badgesById",
      "outputs": [
        {
          "internalType": "uint16",
          "name": "id",
          "type": "uint16"
        },
        {
          "internalType": "address",
          "name": "issuer",
          "type": "address"
        },
        {
          "internalType": "string",
          "name": "issuerName",
          "type": "string"
        },
        {
          "internalType": "address",
          "name": "recipient",
          "type": "address"
        },
        {
          "internalType": "string",
          "name": "recipientName",
          "type": "string"
        }
      ],
      "stateMutability": "view",
      "type": "function"
    },
    {
      "inputs": [
        {
          "internalType": "string",
          "name": "_issuerName",
          "type": "string"
        },
        {
          "internalType": "address",
          "name": "_recipient",
          "type": "address"
        },
        {
          "internalType": "string",
          "name": "_recipientName",
          "type": "string"
        }
      ],
      "name": "issue",
      "outputs": [],
      "stateMutability": "nonpayable",
      "type": "function"
    },
    {
      "inputs": [],
      "name": "owner",
      "outputs": [
        {
          "internalType": "address",
          "name": "",
          "type": "address"
        }
      ],
      "stateMutability": "view",
      "type": "function"
    },
    {
      "inputs": [
        {
          "internalType": "uint16",
          "name": "",
          "type": "uint16"
        }
      ],
      "name": "recipientById",
      "outputs": [
        {
          "internalType": "string",
          "name": "",
          "type": "string"
        }
      ],
      "stateMutability": "view",
      "type": "function"
    }
  ],
  "bytecode": "0x6080604052336000806101000a81548173ffffffffffffffffffffffffffffffffffffffff021916908373ffffffffffffffffffffffffffffffffffffffff16021790555060008060146101000a81548161ffff021916908361ffff16021790555034801561006d57600080fd5b50610c428061007d6000396000f3fe608060405234801561001057600080fd5b506004361061004b5760003560e01c80629a0443146100505780631e7ebea81461006c5780638da5cb5b146100a0578063cc943935146100be575b600080fd5b61006a60048036038101906100659190610747565b6100ee565b005b610086600480360381019061008191906107c6565b6103ba565b604051610097959493929190610903565b60405180910390f35b6100a861054e565b6040516100b591906108c6565b60405180910390f35b6100d860048036038101906100d391906107c6565b610572565b6040516100e591906108e1565b60405180910390f35b6040518060a00160405280600060149054906101000a900461ffff1661ffff1681526020013373ffffffffffffffffffffffffffffffffffffffff1681526020018481526020018373ffffffffffffffffffffffffffffffffffffffff16815260200182815250600160008060149054906101000a900461ffff1661ffff1661ffff16815260200190815260200160002060008201518160000160006101000a81548161ffff021916908361ffff16021790555060208201518160000160026101000a81548173ffffffffffffffffffffffffffffffffffffffff021916908373ffffffffffffffffffffffffffffffffffffffff1602179055506040820151816001019080519060200190610205929190610612565b5060608201518160020160006101000a81548173ffffffffffffffffffffffffffffffffffffffff021916908373ffffffffffffffffffffffffffffffffffffffff1602179055506080820151816003019080519060200190610269929190610612565b5090505080600260008060149054906101000a900461ffff1661ffff1661ffff16815260200190815260200160002090805190602001906102ab929190610612565b507fac43d1426a4ee46693f182c0c494dbf397ff172171eec84caf54a2673d36d385600160008060149054906101000a900461ffff1661ffff1661ffff16815260200190815260200160002060000160009054906101000a900461ffff16600160008060149054906101000a900461ffff1661ffff1661ffff168152602001908152602001600020600101600160008060149054906101000a900461ffff1661ffff1661ffff16815260200190815260200160002060030160405161037293929190610964565b60405180910390a16000601481819054906101000a900461ffff168092919061039a90610b15565b91906101000a81548161ffff021916908361ffff16021790555050505050565b60016020528060005260406000206000915090508060000160009054906101000a900461ffff16908060000160029054906101000a900473ffffffffffffffffffffffffffffffffffffffff169080600101805461041790610ab2565b80601f016020809104026020016040519081016040528092919081815260200182805461044390610ab2565b80156104905780601f1061046557610100808354040283529160200191610490565b820191906000526020600020905b81548152906001019060200180831161047357829003601f168201915b5050505050908060020160009054906101000a900473ffffffffffffffffffffffffffffffffffffffff16908060030180546104cb90610ab2565b80601f01602080910402602001604051908101604052809291908181526020018280546104f790610ab2565b80156105445780601f1061051957610100808354040283529160200191610544565b820191906000526020600020905b81548152906001019060200180831161052757829003601f168201915b5050505050905085565b60008054906101000a900473ffffffffffffffffffffffffffffffffffffffff1681565b6002602052806000526040600020600091509050805461059190610ab2565b80601f01602080910402602001604051908101604052809291908181526020018280546105bd90610ab2565b801561060a5780601f106105df5761010080835404028352916020019161060a565b820191906000526020600020905b8154815290600101906020018083116105ed57829003601f168201915b505050505081565b82805461061e90610ab2565b90600052602060002090601f0160209004810192826106405760008555610687565b82601f1061065957805160ff1916838001178555610687565b82800160010185558215610687579182015b8281111561068657825182559160200191906001019061066b565b5b5090506106949190610698565b5090565b5b808211156106b1576000816000905550600101610699565b5090565b60006106c86106c3846109ce565b6109a9565b9050828152602081018484840111156106e057600080fd5b6106eb848285610a70565b509392505050565b60008135905061070281610bde565b92915050565b600082601f83011261071957600080fd5b81356107298482602086016106b5565b91505092915050565b60008135905061074181610bf5565b92915050565b60008060006060848603121561075c57600080fd5b600084013567ffffffffffffffff81111561077657600080fd5b61078286828701610708565b9350506020610793868287016106f3565b925050604084013567ffffffffffffffff8111156107b057600080fd5b6107bc86828701610708565b9150509250925092565b6000602082840312156107d857600080fd5b60006107e684828501610732565b91505092915050565b6107f881610a30565b82525050565b600061080982610a14565b6108138185610a1f565b9350610823818560208601610a7f565b61082c81610bcd565b840191505092915050565b6000815461084481610ab2565b61084e8186610a1f565b94506001821660008114610869576001811461087b576108ae565b60ff19831686526020860193506108ae565b610884856109ff565b60005b838110156108a657815481890152600182019150602081019050610887565b808801955050505b50505092915050565b6108c081610a42565b82525050565b60006020820190506108db60008301846107ef565b92915050565b600060208201905081810360008301526108fb81846107fe565b905092915050565b600060a08201905061091860008301886108b7565b61092560208301876107ef565b818103604083015261093781866107fe565b905061094660608301856107ef565b818103608083015261095881846107fe565b90509695505050505050565b600060608201905061097960008301866108b7565b818103602083015261098b8185610837565b9050818103604083015261099f8184610837565b9050949350505050565b60006109b36109c4565b90506109bf8282610ae4565b919050565b6000604051905090565b600067ffffffffffffffff8211156109e9576109e8610b9e565b5b6109f282610bcd565b9050602081019050919050565b60008190508160005260206000209050919050565b600081519050919050565b600082825260208201905092915050565b6000610a3b82610a50565b9050919050565b600061ffff82169050919050565b600073ffffffffffffffffffffffffffffffffffffffff82169050919050565b82818337600083830152505050565b60005b83811015610a9d578082015181840152602081019050610a82565b83811115610aac576000848401525b50505050565b60006002820490506001821680610aca57607f821691505b60208210811415610ade57610add610b6f565b5b50919050565b610aed82610bcd565b810181811067ffffffffffffffff82111715610b0c57610b0b610b9e565b5b80604052505050565b6000610b2082610a42565b915061ffff821415610b3557610b34610b40565b5b600182019050919050565b7f4e487b7100000000000000000000000000000000000000000000000000000000600052601160045260246000fd5b7f4e487b7100000000000000000000000000000000000000000000000000000000600052602260045260246000fd5b7f4e487b7100000000000000000000000000000000000000000000000000000000600052604160045260246000fd5b6000601f19601f8301169050919050565b610be781610a30565b8114610bf257600080fd5b50565b610bfe81610a42565b8114610c0957600080fd5b5056fea2646970667358221220468a6769810645a660b52cbc5ba3ecdac36a5a870efaa5f95d4a4400594c043264736f6c63430008040033",
  "linkReferences": {},
  "deployedLinkReferences": {}
}