{
  "_format": "hh-sol-artifact-1",
  "contractName": "Test",
  "sourceName": "contracts/Test.sol",
  "abi": [
    {
      "inputs": [],
      "name": "add",
      "outputs": [],
      "stateMutability": "nonpayable",
      "type": "function"
    },
    {
      "inputs": [
        {
          "internalType": "uint16",
          "name": "",
          "type": "uint16"
        }
      ],
      "name": "testsById",
      "outputs": [
        {
          "internalType": "uint16",
          "name": "id",
          "type": "uint16"
        },
        {
          "internalType": "address",
          "name": "tester",
          "type": "address"
        }
      ],
      "stateMutability": "view",
      "type": "function"
    }
  ],
  "bytecode": "0x608060405260008060006101000a81548161ffff021916908361ffff16021790555034801561002d57600080fd5b506103338061003d6000396000f3fe608060405234801561001057600080fd5b50600436106100365760003560e01c80634f2be91f1461003b57806379e9432214610045575b600080fd5b610043610076565b005b61005f600480360381019061005a91906101dc565b610175565b60405161006d929190610223565b60405180910390f35b604051806040016040528060008054906101000a900461ffff1661ffff1681526020013373ffffffffffffffffffffffffffffffffffffffff168152506001600080600081819054906101000a900461ffff16809291906100d69061028c565b91906101000a81548161ffff021916908361ffff16021790555061ffff1661ffff16815260200190815260200160002060008201518160000160006101000a81548161ffff021916908361ffff16021790555060208201518160000160026101000a81548173ffffffffffffffffffffffffffffffffffffffff021916908373ffffffffffffffffffffffffffffffffffffffff160217905550905050565b60016020528060005260406000206000915090508060000160009054906101000a900461ffff16908060000160029054906101000a900473ffffffffffffffffffffffffffffffffffffffff16905082565b6000813590506101d6816102e6565b92915050565b6000602082840312156101ee57600080fd5b60006101fc848285016101c7565b91505092915050565b61020e8161024c565b82525050565b61021d8161025e565b82525050565b60006040820190506102386000830185610214565b6102456020830184610205565b9392505050565b60006102578261026c565b9050919050565b600061ffff82169050919050565b600073ffffffffffffffffffffffffffffffffffffffff82169050919050565b60006102978261025e565b915061ffff8214156102ac576102ab6102b7565b5b600182019050919050565b7f4e487b7100000000000000000000000000000000000000000000000000000000600052601160045260246000fd5b6102ef8161025e565b81146102fa57600080fd5b5056fea264697066735822122035a6bbb16cb55a677dab2f971b9d38099e419f8b9f84716d4620266d2a7cb23f64736f6c63430008040033",
  "linkReferences": {},
  "deployedLinkReferences": {}
}